{
	"contracts/CallAnything.sol": {
		"CallAnything": {
			"abi": [
				{
					"inputs": [],
					"name": "getSelectorOne",
					"outputs": [
						{
							"internalType": "bytes4",
							"name": "selector",
							"type": "bytes4"
						}
					],
					"stateMutability": "pure",
					"type": "function"
				},
				{
					"inputs": [],
					"name": "s_amount",
					"outputs": [
						{
							"internalType": "uint256",
							"name": "",
							"type": "uint256"
						}
					],
					"stateMutability": "view",
					"type": "function"
				},
				{
					"inputs": [],
					"name": "s_someAddress",
					"outputs": [
						{
							"internalType": "address",
							"name": "",
							"type": "address"
						}
					],
					"stateMutability": "view",
					"type": "function"
				},
				{
					"inputs": [
						{
							"internalType": "address",
							"name": "someAddress",
							"type": "address"
						},
						{
							"internalType": "uint256",
							"name": "amount",
							"type": "uint256"
						}
					],
					"name": "transfer",
					"outputs": [],
					"stateMutability": "payable",
					"type": "function"
				}
			],
			"devdoc": {
				"kind": "dev",
				"methods": {},
				"version": 1
			},
			"evm": {
				"assembly": "    /* \"contracts/CallAnything.sol\":534:921  contract CallAnything {... */\n  mstore(0x40, 0x80)\n  callvalue\n  dup1\n  iszero\n  tag_1\n  jumpi\n  0x00\n  dup1\n  revert\ntag_1:\n  pop\n  dataSize(sub_0)\n  dup1\n  dataOffset(sub_0)\n  0x00\n  codecopy\n  0x00\n  return\nstop\n\nsub_0: assembly {\n        /* \"contracts/CallAnything.sol\":534:921  contract CallAnything {... */\n      mstore(0x40, 0x80)\n      jumpi(tag_1, lt(calldatasize, 0x04))\n      shr(0xe0, calldataload(0x00))\n      dup1\n      0x9a41d3ad\n      eq\n      tag_2\n      jumpi\n      dup1\n      0xa9059cbb\n      eq\n      tag_3\n      jumpi\n      dup1\n      0xaad229d5\n      eq\n      tag_4\n      jumpi\n      dup1\n      0xc6e93bad\n      eq\n      tag_5\n      jumpi\n    tag_1:\n      0x00\n      dup1\n      revert\n        /* \"contracts/CallAnything.sol\":773:919  function getSelectorOne() public pure returns (bytes4 selector) {... */\n    tag_2:\n      callvalue\n      dup1\n      iszero\n      tag_6\n      jumpi\n      0x00\n      dup1\n      revert\n    tag_6:\n      pop\n      tag_7\n      tag_8\n      jump\t// in\n    tag_7:\n      mload(0x40)\n      tag_9\n      swap2\n      swap1\n      tag_10\n      jump\t// in\n    tag_9:\n      mload(0x40)\n      dup1\n      swap2\n      sub\n      swap1\n      return\n        /* \"contracts/CallAnything.sol\":626:767  function transfer(address someAddress, uint256 amount) public payable {... */\n    tag_3:\n      tag_11\n      0x04\n      dup1\n      calldatasize\n      sub\n      dup2\n      add\n      swap1\n      tag_12\n      swap2\n      swap1\n      tag_13\n      jump\t// in\n    tag_12:\n      tag_14\n      jump\t// in\n    tag_11:\n      stop\n        /* \"contracts/CallAnything.sol\":562:590  address public s_someAddress */\n    tag_4:\n      callvalue\n      dup1\n      iszero\n      tag_15\n      jumpi\n      0x00\n      dup1\n      revert\n    tag_15:\n      pop\n      tag_16\n      tag_17\n      jump\t// in\n    tag_16:\n      mload(0x40)\n      tag_18\n      swap2\n      swap1\n      tag_19\n      jump\t// in\n    tag_18:\n      mload(0x40)\n      dup1\n      swap2\n      sub\n      swap1\n      return\n        /* \"contracts/CallAnything.sol\":596:619  uint256 public s_amount */\n    tag_5:\n      callvalue\n      dup1\n      iszero\n      tag_20\n      jumpi\n      0x00\n      dup1\n      revert\n    tag_20:\n      pop\n      tag_21\n      tag_22\n      jump\t// in\n    tag_21:\n      mload(0x40)\n      tag_23\n      swap2\n      swap1\n      tag_24\n      jump\t// in\n    tag_23:\n      mload(0x40)\n      dup1\n      swap2\n      sub\n      swap1\n      return\n        /* \"contracts/CallAnything.sol\":773:919  function getSelectorOne() public pure returns (bytes4 selector) {... */\n    tag_8:\n        /* \"contracts/CallAnything.sol\":820:835  bytes4 selector */\n      0x00\n        /* \"contracts/CallAnything.sol\":875:910  bytes(\"transfer(address, uint256)\") */\n      mload(0x40)\n      dup1\n      0x40\n      add\n      0x40\n      mstore\n      dup1\n      0x1a\n      dup2\n      mstore\n      0x20\n      add\n      0x7472616e7366657228616464726573732c2075696e7432353629000000000000\n      dup2\n      mstore\n      pop\n        /* \"contracts/CallAnything.sol\":865:911  keccak256(bytes(\"transfer(address, uint256)\")) */\n      dup1\n      mload\n      swap1\n      0x20\n      add\n      keccak256\n        /* \"contracts/CallAnything.sol\":847:912  selector = bytes4(keccak256(bytes(\"transfer(address, uint256)\"))) */\n      swap1\n      pop\n        /* \"contracts/CallAnything.sol\":773:919  function getSelectorOne() public pure returns (bytes4 selector) {... */\n      swap1\n      jump\t// out\n        /* \"contracts/CallAnything.sol\":626:767  function transfer(address someAddress, uint256 amount) public payable {... */\n    tag_14:\n        /* \"contracts/CallAnything.sol\":722:733  someAddress */\n      dup2\n        /* \"contracts/CallAnything.sol\":706:719  s_someAddress */\n      0x00\n      dup1\n        /* \"contracts/CallAnything.sol\":706:733  s_someAddress = someAddress */\n      0x0100\n      exp\n      dup2\n      sload\n      dup2\n      0xffffffffffffffffffffffffffffffffffffffff\n      mul\n      not\n      and\n      swap1\n      dup4\n      0xffffffffffffffffffffffffffffffffffffffff\n      and\n      mul\n      or\n      swap1\n      sstore\n      pop\n        /* \"contracts/CallAnything.sol\":754:760  amount */\n      dup1\n        /* \"contracts/CallAnything.sol\":743:751  s_amount */\n      sload(0x01)\n        /* \"contracts/CallAnything.sol\":743:760  s_amount - amount */\n      tag_27\n      swap2\n      swap1\n      tag_28\n      jump\t// in\n    tag_27:\n      pop\n        /* \"contracts/CallAnything.sol\":626:767  function transfer(address someAddress, uint256 amount) public payable {... */\n      pop\n      pop\n      jump\t// out\n        /* \"contracts/CallAnything.sol\":562:590  address public s_someAddress */\n    tag_17:\n      0x00\n      dup1\n      sload\n      swap1\n      0x0100\n      exp\n      swap1\n      div\n      0xffffffffffffffffffffffffffffffffffffffff\n      and\n      dup2\n      jump\t// out\n        /* \"contracts/CallAnything.sol\":596:619  uint256 public s_amount */\n    tag_22:\n      sload(0x01)\n      dup2\n      jump\t// out\n        /* \"#utility.yul\":7:156   */\n    tag_29:\n        /* \"#utility.yul\":43:50   */\n      0x00\n        /* \"#utility.yul\":83:149   */\n      0xffffffff00000000000000000000000000000000000000000000000000000000\n        /* \"#utility.yul\":76:81   */\n      dup3\n        /* \"#utility.yul\":72:150   */\n      and\n        /* \"#utility.yul\":61:150   */\n      swap1\n      pop\n        /* \"#utility.yul\":7:156   */\n      swap2\n      swap1\n      pop\n      jump\t// out\n        /* \"#utility.yul\":162:277   */\n    tag_30:\n        /* \"#utility.yul\":247:270   */\n      tag_47\n        /* \"#utility.yul\":264:269   */\n      dup2\n        /* \"#utility.yul\":247:270   */\n      tag_29\n      jump\t// in\n    tag_47:\n        /* \"#utility.yul\":242:245   */\n      dup3\n        /* \"#utility.yul\":235:271   */\n      mstore\n        /* \"#utility.yul\":162:277   */\n      pop\n      pop\n      jump\t// out\n        /* \"#utility.yul\":283:501   */\n    tag_10:\n        /* \"#utility.yul\":374:378   */\n      0x00\n        /* \"#utility.yul\":412:414   */\n      0x20\n        /* \"#utility.yul\":401:410   */\n      dup3\n        /* \"#utility.yul\":397:415   */\n      add\n        /* \"#utility.yul\":389:415   */\n      swap1\n      pop\n        /* \"#utility.yul\":425:494   */\n      tag_49\n        /* \"#utility.yul\":491:492   */\n      0x00\n        /* \"#utility.yul\":480:489   */\n      dup4\n        /* \"#utility.yul\":476:493   */\n      add\n        /* \"#utility.yul\":467:473   */\n      dup5\n        /* \"#utility.yul\":425:494   */\n      tag_30\n      jump\t// in\n    tag_49:\n        /* \"#utility.yul\":283:501   */\n      swap3\n      swap2\n      pop\n      pop\n      jump\t// out\n        /* \"#utility.yul\":588:705   */\n    tag_32:\n        /* \"#utility.yul\":697:698   */\n      0x00\n        /* \"#utility.yul\":694:695   */\n      dup1\n        /* \"#utility.yul\":687:699   */\n      revert\n        /* \"#utility.yul\":834:960   */\n    tag_34:\n        /* \"#utility.yul\":871:878   */\n      0x00\n        /* \"#utility.yul\":911:953   */\n      0xffffffffffffffffffffffffffffffffffffffff\n        /* \"#utility.yul\":904:909   */\n      dup3\n        /* \"#utility.yul\":900:954   */\n      and\n        /* \"#utility.yul\":889:954   */\n      swap1\n      pop\n        /* \"#utility.yul\":834:960   */\n      swap2\n      swap1\n      pop\n      jump\t// out\n        /* \"#utility.yul\":966:1062   */\n    tag_35:\n        /* \"#utility.yul\":1003:1010   */\n      0x00\n        /* \"#utility.yul\":1032:1056   */\n      tag_55\n        /* \"#utility.yul\":1050:1055   */\n      dup3\n        /* \"#utility.yul\":1032:1056   */\n      tag_34\n      jump\t// in\n    tag_55:\n        /* \"#utility.yul\":1021:1056   */\n      swap1\n      pop\n        /* \"#utility.yul\":966:1062   */\n      swap2\n      swap1\n      pop\n      jump\t// out\n        /* \"#utility.yul\":1068:1190   */\n    tag_36:\n        /* \"#utility.yul\":1141:1165   */\n      tag_57\n        /* \"#utility.yul\":1159:1164   */\n      dup2\n        /* \"#utility.yul\":1141:1165   */\n      tag_35\n      jump\t// in\n    tag_57:\n        /* \"#utility.yul\":1134:1139   */\n      dup2\n        /* \"#utility.yul\":1131:1166   */\n      eq\n        /* \"#utility.yul\":1121:1184   */\n      tag_58\n      jumpi\n        /* \"#utility.yul\":1180:1181   */\n      0x00\n        /* \"#utility.yul\":1177:1178   */\n      dup1\n        /* \"#utility.yul\":1170:1182   */\n      revert\n        /* \"#utility.yul\":1121:1184   */\n    tag_58:\n        /* \"#utility.yul\":1068:1190   */\n      pop\n      jump\t// out\n        /* \"#utility.yul\":1196:1335   */\n    tag_37:\n        /* \"#utility.yul\":1242:1247   */\n      0x00\n        /* \"#utility.yul\":1280:1286   */\n      dup2\n        /* \"#utility.yul\":1267:1287   */\n      calldataload\n        /* \"#utility.yul\":1258:1287   */\n      swap1\n      pop\n        /* \"#utility.yul\":1296:1329   */\n      tag_60\n        /* \"#utility.yul\":1323:1328   */\n      dup2\n        /* \"#utility.yul\":1296:1329   */\n      tag_36\n      jump\t// in\n    tag_60:\n        /* \"#utility.yul\":1196:1335   */\n      swap3\n      swap2\n      pop\n      pop\n      jump\t// out\n        /* \"#utility.yul\":1341:1418   */\n    tag_38:\n        /* \"#utility.yul\":1378:1385   */\n      0x00\n        /* \"#utility.yul\":1407:1412   */\n      dup2\n        /* \"#utility.yul\":1396:1412   */\n      swap1\n      pop\n        /* \"#utility.yul\":1341:1418   */\n      swap2\n      swap1\n      pop\n      jump\t// out\n        /* \"#utility.yul\":1424:1546   */\n    tag_39:\n        /* \"#utility.yul\":1497:1521   */\n      tag_63\n        /* \"#utility.yul\":1515:1520   */\n      dup2\n        /* \"#utility.yul\":1497:1521   */\n      tag_38\n      jump\t// in\n    tag_63:\n        /* \"#utility.yul\":1490:1495   */\n      dup2\n        /* \"#utility.yul\":1487:1522   */\n      eq\n        /* \"#utility.yul\":1477:1540   */\n      tag_64\n      jumpi\n        /* \"#utility.yul\":1536:1537   */\n      0x00\n        /* \"#utility.yul\":1533:1534   */\n      dup1\n        /* \"#utility.yul\":1526:1538   */\n      revert\n        /* \"#utility.yul\":1477:1540   */\n    tag_64:\n        /* \"#utility.yul\":1424:1546   */\n      pop\n      jump\t// out\n        /* \"#utility.yul\":1552:1691   */\n    tag_40:\n        /* \"#utility.yul\":1598:1603   */\n      0x00\n        /* \"#utility.yul\":1636:1642   */\n      dup2\n        /* \"#utility.yul\":1623:1643   */\n      calldataload\n        /* \"#utility.yul\":1614:1643   */\n      swap1\n      pop\n        /* \"#utility.yul\":1652:1685   */\n      tag_66\n        /* \"#utility.yul\":1679:1684   */\n      dup2\n        /* \"#utility.yul\":1652:1685   */\n      tag_39\n      jump\t// in\n    tag_66:\n        /* \"#utility.yul\":1552:1691   */\n      swap3\n      swap2\n      pop\n      pop\n      jump\t// out\n        /* \"#utility.yul\":1697:2171   */\n    tag_13:\n        /* \"#utility.yul\":1765:1771   */\n      0x00\n        /* \"#utility.yul\":1773:1779   */\n      dup1\n        /* \"#utility.yul\":1822:1824   */\n      0x40\n        /* \"#utility.yul\":1810:1819   */\n      dup4\n        /* \"#utility.yul\":1801:1808   */\n      dup6\n        /* \"#utility.yul\":1797:1820   */\n      sub\n        /* \"#utility.yul\":1793:1825   */\n      slt\n        /* \"#utility.yul\":1790:1909   */\n      iszero\n      tag_68\n      jumpi\n        /* \"#utility.yul\":1828:1907   */\n      tag_69\n      tag_32\n      jump\t// in\n    tag_69:\n        /* \"#utility.yul\":1790:1909   */\n    tag_68:\n        /* \"#utility.yul\":1948:1949   */\n      0x00\n        /* \"#utility.yul\":1973:2026   */\n      tag_70\n        /* \"#utility.yul\":2018:2025   */\n      dup6\n        /* \"#utility.yul\":2009:2015   */\n      dup3\n        /* \"#utility.yul\":1998:2007   */\n      dup7\n        /* \"#utility.yul\":1994:2016   */\n      add\n        /* \"#utility.yul\":1973:2026   */\n      tag_37\n      jump\t// in\n    tag_70:\n        /* \"#utility.yul\":1963:2026   */\n      swap3\n      pop\n        /* \"#utility.yul\":1919:2036   */\n      pop\n        /* \"#utility.yul\":2075:2077   */\n      0x20\n        /* \"#utility.yul\":2101:2154   */\n      tag_71\n        /* \"#utility.yul\":2146:2153   */\n      dup6\n        /* \"#utility.yul\":2137:2143   */\n      dup3\n        /* \"#utility.yul\":2126:2135   */\n      dup7\n        /* \"#utility.yul\":2122:2144   */\n      add\n        /* \"#utility.yul\":2101:2154   */\n      tag_40\n      jump\t// in\n    tag_71:\n        /* \"#utility.yul\":2091:2154   */\n      swap2\n      pop\n        /* \"#utility.yul\":2046:2164   */\n      pop\n        /* \"#utility.yul\":1697:2171   */\n      swap3\n      pop\n      swap3\n      swap1\n      pop\n      jump\t// out\n        /* \"#utility.yul\":2177:2295   */\n    tag_41:\n        /* \"#utility.yul\":2264:2288   */\n      tag_73\n        /* \"#utility.yul\":2282:2287   */\n      dup2\n        /* \"#utility.yul\":2264:2288   */\n      tag_35\n      jump\t// in\n    tag_73:\n        /* \"#utility.yul\":2259:2262   */\n      dup3\n        /* \"#utility.yul\":2252:2289   */\n      mstore\n        /* \"#utility.yul\":2177:2295   */\n      pop\n      pop\n      jump\t// out\n        /* \"#utility.yul\":2301:2523   */\n    tag_19:\n        /* \"#utility.yul\":2394:2398   */\n      0x00\n        /* \"#utility.yul\":2432:2434   */\n      0x20\n        /* \"#utility.yul\":2421:2430   */\n      dup3\n        /* \"#utility.yul\":2417:2435   */\n      add\n        /* \"#utility.yul\":2409:2435   */\n      swap1\n      pop\n        /* \"#utility.yul\":2445:2516   */\n      tag_75\n        /* \"#utility.yul\":2513:2514   */\n      0x00\n        /* \"#utility.yul\":2502:2511   */\n      dup4\n        /* \"#utility.yul\":2498:2515   */\n      add\n        /* \"#utility.yul\":2489:2495   */\n      dup5\n        /* \"#utility.yul\":2445:2516   */\n      tag_41\n      jump\t// in\n    tag_75:\n        /* \"#utility.yul\":2301:2523   */\n      swap3\n      swap2\n      pop\n      pop\n      jump\t// out\n        /* \"#utility.yul\":2529:2647   */\n    tag_42:\n        /* \"#utility.yul\":2616:2640   */\n      tag_77\n        /* \"#utility.yul\":2634:2639   */\n      dup2\n        /* \"#utility.yul\":2616:2640   */\n      tag_38\n      jump\t// in\n    tag_77:\n        /* \"#utility.yul\":2611:2614   */\n      dup3\n        /* \"#utility.yul\":2604:2641   */\n      mstore\n        /* \"#utility.yul\":2529:2647   */\n      pop\n      pop\n      jump\t// out\n        /* \"#utility.yul\":2653:2875   */\n    tag_24:\n        /* \"#utility.yul\":2746:2750   */\n      0x00\n        /* \"#utility.yul\":2784:2786   */\n      0x20\n        /* \"#utility.yul\":2773:2782   */\n      dup3\n        /* \"#utility.yul\":2769:2787   */\n      add\n        /* \"#utility.yul\":2761:2787   */\n      swap1\n      pop\n        /* \"#utility.yul\":2797:2868   */\n      tag_79\n        /* \"#utility.yul\":2865:2866   */\n      0x00\n        /* \"#utility.yul\":2854:2863   */\n      dup4\n        /* \"#utility.yul\":2850:2867   */\n      add\n        /* \"#utility.yul\":2841:2847   */\n      dup5\n        /* \"#utility.yul\":2797:2868   */\n      tag_42\n      jump\t// in\n    tag_79:\n        /* \"#utility.yul\":2653:2875   */\n      swap3\n      swap2\n      pop\n      pop\n      jump\t// out\n        /* \"#utility.yul\":2881:3061   */\n    tag_43:\n        /* \"#utility.yul\":2929:3006   */\n      0x4e487b7100000000000000000000000000000000000000000000000000000000\n        /* \"#utility.yul\":2926:2927   */\n      0x00\n        /* \"#utility.yul\":2919:3007   */\n      mstore\n        /* \"#utility.yul\":3026:3030   */\n      0x11\n        /* \"#utility.yul\":3023:3024   */\n      0x04\n        /* \"#utility.yul\":3016:3031   */\n      mstore\n        /* \"#utility.yul\":3050:3054   */\n      0x24\n        /* \"#utility.yul\":3047:3048   */\n      0x00\n        /* \"#utility.yul\":3040:3055   */\n      revert\n        /* \"#utility.yul\":3067:3261   */\n    tag_28:\n        /* \"#utility.yul\":3107:3111   */\n      0x00\n        /* \"#utility.yul\":3127:3147   */\n      tag_82\n        /* \"#utility.yul\":3145:3146   */\n      dup3\n        /* \"#utility.yul\":3127:3147   */\n      tag_38\n      jump\t// in\n    tag_82:\n        /* \"#utility.yul\":3122:3147   */\n      swap2\n      pop\n        /* \"#utility.yul\":3161:3181   */\n      tag_83\n        /* \"#utility.yul\":3179:3180   */\n      dup4\n        /* \"#utility.yul\":3161:3181   */\n      tag_38\n      jump\t// in\n    tag_83:\n        /* \"#utility.yul\":3156:3181   */\n      swap3\n      pop\n        /* \"#utility.yul\":3205:3206   */\n      dup3\n        /* \"#utility.yul\":3202:3203   */\n      dup3\n        /* \"#utility.yul\":3198:3207   */\n      sub\n        /* \"#utility.yul\":3190:3207   */\n      swap1\n      pop\n        /* \"#utility.yul\":3229:3230   */\n      dup2\n        /* \"#utility.yul\":3223:3227   */\n      dup2\n        /* \"#utility.yul\":3220:3231   */\n      gt\n        /* \"#utility.yul\":3217:3254   */\n      iszero\n      tag_84\n      jumpi\n        /* \"#utility.yul\":3234:3252   */\n      tag_85\n      tag_43\n      jump\t// in\n    tag_85:\n        /* \"#utility.yul\":3217:3254   */\n    tag_84:\n        /* \"#utility.yul\":3067:3261   */\n      swap3\n      swap2\n      pop\n      pop\n      jump\t// out\n\n    auxdata: 0xa2646970667358221220bfcb426260fbfacea20acc410e22d6699b3a4bbe2d817948d1b28b936c8a8fb764736f6c63430008100033\n}\n",
				"bytecode": {
					"linkReferences": {},
					"object": "608060405234801561001057600080fd5b506103be806100206000396000f3fe60806040526004361061003f5760003560e01c80639a41d3ad14610044578063a9059cbb1461006f578063aad229d51461008b578063c6e93bad146100b6575b600080fd5b34801561005057600080fd5b506100596100e1565b60405161006691906101dd565b60405180910390f35b61008960048036038101906100849190610291565b610125565b005b34801561009757600080fd5b506100a0610178565b6040516100ad91906102e0565b60405180910390f35b3480156100c257600080fd5b506100cb61019c565b6040516100d8919061030a565b60405180910390f35b60006040518060400160405280601a81526020017f7472616e7366657228616464726573732c2075696e743235362900000000000081525080519060200120905090565b816000806101000a81548173ffffffffffffffffffffffffffffffffffffffff021916908373ffffffffffffffffffffffffffffffffffffffff160217905550806001546101739190610354565b505050565b60008054906101000a900473ffffffffffffffffffffffffffffffffffffffff1681565b60015481565b60007fffffffff0000000000000000000000000000000000000000000000000000000082169050919050565b6101d7816101a2565b82525050565b60006020820190506101f260008301846101ce565b92915050565b600080fd5b600073ffffffffffffffffffffffffffffffffffffffff82169050919050565b6000610228826101fd565b9050919050565b6102388161021d565b811461024357600080fd5b50565b6000813590506102558161022f565b92915050565b6000819050919050565b61026e8161025b565b811461027957600080fd5b50565b60008135905061028b81610265565b92915050565b600080604083850312156102a8576102a76101f8565b5b60006102b685828601610246565b92505060206102c78582860161027c565b9150509250929050565b6102da8161021d565b82525050565b60006020820190506102f560008301846102d1565b92915050565b6103048161025b565b82525050565b600060208201905061031f60008301846102fb565b92915050565b7f4e487b7100000000000000000000000000000000000000000000000000000000600052601160045260246000fd5b600061035f8261025b565b915061036a8361025b565b925082820390508181111561038257610381610325565b5b9291505056fea2646970667358221220bfcb426260fbfacea20acc410e22d6699b3a4bbe2d817948d1b28b936c8a8fb764736f6c63430008100033",
					"opcodes": "PUSH1 0x80 PUSH1 0x40 MSTORE CALLVALUE DUP1 ISZERO PUSH2 0x10 JUMPI PUSH1 0x0 DUP1 REVERT JUMPDEST POP PUSH2 0x3BE DUP1 PUSH2 0x20 PUSH1 0x0 CODECOPY PUSH1 0x0 RETURN INVALID PUSH1 0x80 PUSH1 0x40 MSTORE PUSH1 0x4 CALLDATASIZE LT PUSH2 0x3F JUMPI PUSH1 0x0 CALLDATALOAD PUSH1 0xE0 SHR DUP1 PUSH4 0x9A41D3AD EQ PUSH2 0x44 JUMPI DUP1 PUSH4 0xA9059CBB EQ PUSH2 0x6F JUMPI DUP1 PUSH4 0xAAD229D5 EQ PUSH2 0x8B JUMPI DUP1 PUSH4 0xC6E93BAD EQ PUSH2 0xB6 JUMPI JUMPDEST PUSH1 0x0 DUP1 REVERT JUMPDEST CALLVALUE DUP1 ISZERO PUSH2 0x50 JUMPI PUSH1 0x0 DUP1 REVERT JUMPDEST POP PUSH2 0x59 PUSH2 0xE1 JUMP JUMPDEST PUSH1 0x40 MLOAD PUSH2 0x66 SWAP2 SWAP1 PUSH2 0x1DD JUMP JUMPDEST PUSH1 0x40 MLOAD DUP1 SWAP2 SUB SWAP1 RETURN JUMPDEST PUSH2 0x89 PUSH1 0x4 DUP1 CALLDATASIZE SUB DUP2 ADD SWAP1 PUSH2 0x84 SWAP2 SWAP1 PUSH2 0x291 JUMP JUMPDEST PUSH2 0x125 JUMP JUMPDEST STOP JUMPDEST CALLVALUE DUP1 ISZERO PUSH2 0x97 JUMPI PUSH1 0x0 DUP1 REVERT JUMPDEST POP PUSH2 0xA0 PUSH2 0x178 JUMP JUMPDEST PUSH1 0x40 MLOAD PUSH2 0xAD SWAP2 SWAP1 PUSH2 0x2E0 JUMP JUMPDEST PUSH1 0x40 MLOAD DUP1 SWAP2 SUB SWAP1 RETURN JUMPDEST CALLVALUE DUP1 ISZERO PUSH2 0xC2 JUMPI PUSH1 0x0 DUP1 REVERT JUMPDEST POP PUSH2 0xCB PUSH2 0x19C JUMP JUMPDEST PUSH1 0x40 MLOAD PUSH2 0xD8 SWAP2 SWAP1 PUSH2 0x30A JUMP JUMPDEST PUSH1 0x40 MLOAD DUP1 SWAP2 SUB SWAP1 RETURN JUMPDEST PUSH1 0x0 PUSH1 0x40 MLOAD DUP1 PUSH1 0x40 ADD PUSH1 0x40 MSTORE DUP1 PUSH1 0x1A DUP2 MSTORE PUSH1 0x20 ADD PUSH32 0x7472616E7366657228616464726573732C2075696E7432353629000000000000 DUP2 MSTORE POP DUP1 MLOAD SWAP1 PUSH1 0x20 ADD KECCAK256 SWAP1 POP SWAP1 JUMP JUMPDEST DUP2 PUSH1 0x0 DUP1 PUSH2 0x100 EXP DUP2 SLOAD DUP2 PUSH20 0xFFFFFFFFFFFFFFFFFFFFFFFFFFFFFFFFFFFFFFFF MUL NOT AND SWAP1 DUP4 PUSH20 0xFFFFFFFFFFFFFFFFFFFFFFFFFFFFFFFFFFFFFFFF AND MUL OR SWAP1 SSTORE POP DUP1 PUSH1 0x1 SLOAD PUSH2 0x173 SWAP2 SWAP1 PUSH2 0x354 JUMP JUMPDEST POP POP POP JUMP JUMPDEST PUSH1 0x0 DUP1 SLOAD SWAP1 PUSH2 0x100 EXP SWAP1 DIV PUSH20 0xFFFFFFFFFFFFFFFFFFFFFFFFFFFFFFFFFFFFFFFF AND DUP2 JUMP JUMPDEST PUSH1 0x1 SLOAD DUP2 JUMP JUMPDEST PUSH1 0x0 PUSH32 0xFFFFFFFF00000000000000000000000000000000000000000000000000000000 DUP3 AND SWAP1 POP SWAP2 SWAP1 POP JUMP JUMPDEST PUSH2 0x1D7 DUP2 PUSH2 0x1A2 JUMP JUMPDEST DUP3 MSTORE POP POP JUMP JUMPDEST PUSH1 0x0 PUSH1 0x20 DUP3 ADD SWAP1 POP PUSH2 0x1F2 PUSH1 0x0 DUP4 ADD DUP5 PUSH2 0x1CE JUMP JUMPDEST SWAP3 SWAP2 POP POP JUMP JUMPDEST PUSH1 0x0 DUP1 REVERT JUMPDEST PUSH1 0x0 PUSH20 0xFFFFFFFFFFFFFFFFFFFFFFFFFFFFFFFFFFFFFFFF DUP3 AND SWAP1 POP SWAP2 SWAP1 POP JUMP JUMPDEST PUSH1 0x0 PUSH2 0x228 DUP3 PUSH2 0x1FD JUMP JUMPDEST SWAP1 POP SWAP2 SWAP1 POP JUMP JUMPDEST PUSH2 0x238 DUP2 PUSH2 0x21D JUMP JUMPDEST DUP2 EQ PUSH2 0x243 JUMPI PUSH1 0x0 DUP1 REVERT JUMPDEST POP JUMP JUMPDEST PUSH1 0x0 DUP2 CALLDATALOAD SWAP1 POP PUSH2 0x255 DUP2 PUSH2 0x22F JUMP JUMPDEST SWAP3 SWAP2 POP POP JUMP JUMPDEST PUSH1 0x0 DUP2 SWAP1 POP SWAP2 SWAP1 POP JUMP JUMPDEST PUSH2 0x26E DUP2 PUSH2 0x25B JUMP JUMPDEST DUP2 EQ PUSH2 0x279 JUMPI PUSH1 0x0 DUP1 REVERT JUMPDEST POP JUMP JUMPDEST PUSH1 0x0 DUP2 CALLDATALOAD SWAP1 POP PUSH2 0x28B DUP2 PUSH2 0x265 JUMP JUMPDEST SWAP3 SWAP2 POP POP JUMP JUMPDEST PUSH1 0x0 DUP1 PUSH1 0x40 DUP4 DUP6 SUB SLT ISZERO PUSH2 0x2A8 JUMPI PUSH2 0x2A7 PUSH2 0x1F8 JUMP JUMPDEST JUMPDEST PUSH1 0x0 PUSH2 0x2B6 DUP6 DUP3 DUP7 ADD PUSH2 0x246 JUMP JUMPDEST SWAP3 POP POP PUSH1 0x20 PUSH2 0x2C7 DUP6 DUP3 DUP7 ADD PUSH2 0x27C JUMP JUMPDEST SWAP2 POP POP SWAP3 POP SWAP3 SWAP1 POP JUMP JUMPDEST PUSH2 0x2DA DUP2 PUSH2 0x21D JUMP JUMPDEST DUP3 MSTORE POP POP JUMP JUMPDEST PUSH1 0x0 PUSH1 0x20 DUP3 ADD SWAP1 POP PUSH2 0x2F5 PUSH1 0x0 DUP4 ADD DUP5 PUSH2 0x2D1 JUMP JUMPDEST SWAP3 SWAP2 POP POP JUMP JUMPDEST PUSH2 0x304 DUP2 PUSH2 0x25B JUMP JUMPDEST DUP3 MSTORE POP POP JUMP JUMPDEST PUSH1 0x0 PUSH1 0x20 DUP3 ADD SWAP1 POP PUSH2 0x31F PUSH1 0x0 DUP4 ADD DUP5 PUSH2 0x2FB JUMP JUMPDEST SWAP3 SWAP2 POP POP JUMP JUMPDEST PUSH32 0x4E487B7100000000000000000000000000000000000000000000000000000000 PUSH1 0x0 MSTORE PUSH1 0x11 PUSH1 0x4 MSTORE PUSH1 0x24 PUSH1 0x0 REVERT JUMPDEST PUSH1 0x0 PUSH2 0x35F DUP3 PUSH2 0x25B JUMP JUMPDEST SWAP2 POP PUSH2 0x36A DUP4 PUSH2 0x25B JUMP JUMPDEST SWAP3 POP DUP3 DUP3 SUB SWAP1 POP DUP2 DUP2 GT ISZERO PUSH2 0x382 JUMPI PUSH2 0x381 PUSH2 0x325 JUMP JUMPDEST JUMPDEST SWAP3 SWAP2 POP POP JUMP INVALID LOG2 PUSH5 0x6970667358 0x22 SLT KECCAK256 0xBF 0xCB TIMESTAMP PUSH3 0x60FBFA 0xCE LOG2 EXP 0xCC COINBASE 0xE 0x22 0xD6 PUSH10 0x9B3A4BBE2D817948D1B2 DUP12 SWAP4 PUSH13 0x8A8FB764736F6C634300081000 CALLER "
				},
				"gasEstimates": {
					"creation": {
						"codeDepositCost": "191600",
						"executionCost": "232",
						"totalCost": "191832"
					},
					"external": {
						"getSelectorOne()": "425",
						"s_amount()": "2473",
						"s_someAddress()": "2533",
						"transfer(address,uint256)": "infinite"
					}
				},
				"methodIdentifiers": {
					"getSelectorOne()": "9a41d3ad",
					"s_amount()": "c6e93bad",
					"s_someAddress()": "aad229d5",
					"transfer(address,uint256)": "a9059cbb"
				}
			},
			"storageLayout": {
				"storage": [
					{
						"astId": 3,
						"contract": "contracts/CallAnything.sol:CallAnything",
						"label": "s_someAddress",
						"offset": 0,
						"slot": "0",
						"type": "t_address"
					},
					{
						"astId": 5,
						"contract": "contracts/CallAnything.sol:CallAnything",
						"label": "s_amount",
						"offset": 0,
						"slot": "1",
						"type": "t_uint256"
					}
				],
				"types": {
					"t_address": {
						"encoding": "inplace",
						"label": "address",
						"numberOfBytes": "20"
					},
					"t_uint256": {
						"encoding": "inplace",
						"label": "uint256",
						"numberOfBytes": "32"
					}
				}
			},
			"userdoc": {
				"kind": "user",
				"methods": {},
				"version": 1
			}
		}
	}
}